:100000000C942A000C9434000C9434000C943400AA
:100010000C9434000C9434000C9434000C94340090
:100020000C9434000C9434000C9434000C94340080
:100030000C9434000C9434000C9434000C94340070
:100040000C9434000C9434000C9434000C94340060
:100050000C94340011241FBECFE5D4E0DEBFCDBF29
:100060000E9436000C9459000C9400008FEF84BB62
:1000700015BA11BA82BB9AE046E039E025E080B3B8
:100080008F70813011F495BBFACF80B38F708230BE
:1000900011F425BBF4CF80B38F70833011F435BBDE
:1000A000EECF80B38F70843011F445BBE8CF15BA22
:0600B000E6CFF894FFCF3B
:00000001FF
